{
  "abi": [
    {
      "inputs": [],
      "stateMutability": "nonpayable",
      "type": "constructor"
    },
    {
      "inputs": [
        {
          "internalType": "uint64",
          "name": "endTime",
          "type": "uint64"
        }
      ],
      "name": "CampaignEnded",
      "type": "error"
    },
    {
      "inputs": [
        {
          "internalType": "uint64",
          "name": "startTime",
          "type": "uint64"
        }
      ],
      "name": "CampaignNotStarted",
      "type": "error"
    },
    {
      "inputs": [],
      "name": "CampaignUnverified",
      "type": "error"
    },
    {
      "inputs": [
        {
          "internalType": "uint256",
          "name": "amount",
          "type": "uint256"
        }
      ],
      "name": "InvalidWithdrawAmount",
      "type": "error"
    },
    {
      "inputs": [
        {
          "internalType": "address",
          "name": "sender",
          "type": "address"
        }
      ],
      "name": "SenderIsNotBeneficiary",
      "type": "error"
    },
    {
      "inputs": [
        {
          "internalType": "uint256",
          "name": "amount",
          "type": "uint256"
        },
        {
          "internalType": "uint256",
          "name": "withdrawableAmount",
          "type": "uint256"
        }
      ],
      "name": "WithdrawableAmountNotSufficient",
      "type": "error"
    },
    {
      "anonymous": false,
      "inputs": [
        {
          "indexed": true,
          "internalType": "address",
          "name": "user",
          "type": "address"
        },
        {
          "indexed": true,
          "internalType": "address",
          "name": "asset",
          "type": "address"
        },
        {
          "indexed": false,
          "internalType": "uint256",
          "name": "amount",
          "type": "uint256"
        }
      ],
      "name": "Donated",
      "type": "event"
    },
    {
      "anonymous": false,
      "inputs": [
        {
          "indexed": true,
          "internalType": "address",
          "name": "asset",
          "type": "address"
        },
        {
          "indexed": false,
          "internalType": "uint256",
          "name": "amount",
          "type": "uint256"
        }
      ],
      "name": "Withdraw",
      "type": "event"
    },
    {
      "inputs": [],
      "name": "asset",
      "outputs": [
        {
          "internalType": "address",
          "name": "",
          "type": "address"
        }
      ],
      "stateMutability": "view",
      "type": "function"
    },
    {
      "inputs": [],
      "name": "beneficiary",
      "outputs": [
        {
          "internalType": "address",
          "name": "",
          "type": "address"
        }
      ],
      "stateMutability": "view",
      "type": "function"
    },
    {
      "inputs": [],
      "name": "claimed",
      "outputs": [
        {
          "internalType": "uint256",
          "name": "",
          "type": "uint256"
        }
      ],
      "stateMutability": "view",
      "type": "function"
    },
    {
      "inputs": [],
      "name": "cliffDuration",
      "outputs": [
        {
          "internalType": "uint64",
          "name": "",
          "type": "uint64"
        }
      ],
      "stateMutability": "view",
      "type": "function"
    },
    {
      "inputs": [
        {
          "internalType": "uint256",
          "name": "amount",
          "type": "uint256"
        }
      ],
      "name": "donate",
      "outputs": [],
      "stateMutability": "nonpayable",
      "type": "function"
    },
    {
      "inputs": [
        {
          "internalType": "address",
          "name": "user",
          "type": "address"
        }
      ],
      "name": "donatedAmount",
      "outputs": [
        {
          "internalType": "uint256",
          "name": "",
          "type": "uint256"
        }
      ],
      "stateMutability": "view",
      "type": "function"
    },
    {
      "inputs": [],
      "name": "endTime",
      "outputs": [
        {
          "internalType": "uint64",
          "name": "",
          "type": "uint64"
        }
      ],
      "stateMutability": "view",
      "type": "function"
    },
    {
      "inputs": [],
      "name": "factory",
      "outputs": [
        {
          "internalType": "address",
          "name": "",
          "type": "address"
        }
      ],
      "stateMutability": "view",
      "type": "function"
    },
    {
      "inputs": [
        {
          "components": [
            {
              "internalType": "uint64",
              "name": "startTime",
              "type": "uint64"
            },
            {
              "internalType": "uint64",
              "name": "endTime",
              "type": "uint64"
            },
            {
              "internalType": "uint64",
              "name": "cliffDuration",
              "type": "uint64"
            },
            {
              "internalType": "address",
              "name": "beneficiary",
              "type": "address"
            },
            {
              "internalType": "uint256",
              "name": "targetAmount",
              "type": "uint256"
            },
            {
              "internalType": "address",
              "name": "asset",
              "type": "address"
            },
            {
              "internalType": "bytes",
              "name": "metadata",
              "type": "bytes"
            },
            {
              "components": [
                {
                  "internalType": "uint256",
                  "name": "percentageBps",
                  "type": "uint256"
                },
                {
                  "internalType": "uint64",
                  "name": "milestone",
                  "type": "uint64"
                }
              ],
              "internalType": "struct CampaignLib.Segment[]",
              "name": "segments",
              "type": "tuple[]"
            }
          ],
          "internalType": "struct CampaignLib.CreateCampaignParams",
          "name": "campaignInfo",
          "type": "tuple"
        }
      ],
      "name": "initialize",
      "outputs": [],
      "stateMutability": "nonpayable",
      "type": "function"
    },
    {
      "inputs": [],
      "name": "metadata",
      "outputs": [
        {
          "internalType": "bytes",
          "name": "",
          "type": "bytes"
        }
      ],
      "stateMutability": "view",
      "type": "function"
    },
    {
      "inputs": [],
      "name": "raisedAmount",
      "outputs": [
        {
          "internalType": "uint256",
          "name": "",
          "type": "uint256"
        }
      ],
      "stateMutability": "view",
      "type": "function"
    },
    {
      "inputs": [
        {
          "internalType": "uint256",
          "name": "index",
          "type": "uint256"
        }
      ],
      "name": "segmentByIndex",
      "outputs": [
        {
          "components": [
            {
              "internalType": "uint256",
              "name": "percentageBps",
              "type": "uint256"
            },
            {
              "internalType": "uint64",
              "name": "milestone",
              "type": "uint64"
            }
          ],
          "internalType": "struct CampaignLib.Segment",
          "name": "",
          "type": "tuple"
        }
      ],
      "stateMutability": "view",
      "type": "function"
    },
    {
      "inputs": [],
      "name": "segmentsCount",
      "outputs": [
        {
          "internalType": "uint256",
          "name": "",
          "type": "uint256"
        }
      ],
      "stateMutability": "view",
      "type": "function"
    },
    {
      "inputs": [],
      "name": "startTime",
      "outputs": [
        {
          "internalType": "uint64",
          "name": "",
          "type": "uint64"
        }
      ],
      "stateMutability": "view",
      "type": "function"
    },
    {
      "inputs": [],
      "name": "targetAmount",
      "outputs": [
        {
          "internalType": "uint256",
          "name": "",
          "type": "uint256"
        }
      ],
      "stateMutability": "view",
      "type": "function"
    },
    {
      "inputs": [
        {
          "internalType": "uint256",
          "name": "amount",
          "type": "uint256"
        }
      ],
      "name": "withdraw",
      "outputs": [],
      "stateMutability": "nonpayable",
      "type": "function"
    },
    {
      "inputs": [],
      "name": "withdrawableAmount",
      "outputs": [
        {
          "internalType": "uint256",
          "name": "",
          "type": "uint256"
        }
      ],
      "stateMutability": "view",
      "type": "function"
    }
  ],
  "bytecode": {
    "object": "0x60a060405234801561001057600080fd5b5033608052608051611b5f61005a600039600081816102ef015281816103f20152818161070a01528181610b4201528181610bd501528181610e480152610f180152611b5f6000f3fe608060405234801561001057600080fd5b506004361061011b5760003560e01c806378e97925116100b2578063c59ee1dc11610081578063d85349f711610066578063d85349f714610323578063e834a8341461034c578063f14faf6f1461035557600080fd5b8063c59ee1dc14610311578063cb892c711461031a57600080fd5b806378e97925146102c0578063951303f5146102d9578063953b8fb8146102e1578063c45a0155146102ea57600080fd5b80633197cbb6116100ee5780633197cbb61461020c57806338af3eed1461024657806338d52e0f1461028b578063392f37e9146102ab57600080fd5b8063022f63881461012057806316794c56146101695780632e1a7d4d1461017e57806330e72cce14610191575b600080fd5b61015661012e366004611429565b73ffffffffffffffffffffffffffffffffffffffff1660009081526009602052604090205490565b6040519081526020015b60405180910390f35b61017c610177366004611669565b610368565b005b61017c61018c36600461175a565b610676565b6101e761019f36600461175a565b6040805180820190915260008082526020820152506000908152600860209081526040918290208251808401909352805483526001015467ffffffffffffffff169082015290565b604080518251815260209283015167ffffffffffffffff169281019290925201610160565b60005461022d906901000000000000000000900467ffffffffffffffff1681565b60405167ffffffffffffffff9091168152602001610160565b6001546102669073ffffffffffffffffffffffffffffffffffffffff1681565b60405173ffffffffffffffffffffffffffffffffffffffff9091168152602001610160565b6002546102669073ffffffffffffffffffffffffffffffffffffffff1681565b6102b361094c565b60405161016091906117e1565b60005461022d90610100900467ffffffffffffffff1681565b6101566109da565b61015660035481565b6102667f000000000000000000000000000000000000000000000000000000000000000081565b61015660045481565b61015660065481565b60005461022d9071010000000000000000000000000000000000900467ffffffffffffffff1681565b61015660055481565b61017c61036336600461175a565b610b02565b60005460ff16156103da576040517f08c379a000000000000000000000000000000000000000000000000000000000815260206004820152600e60248201527f497320696e697469616c697a656400000000000000000000000000000000000060448201526064015b60405180910390fd5b3373ffffffffffffffffffffffffffffffffffffffff7f00000000000000000000000000000000000000000000000000000000000000001614610479576040517f08c379a000000000000000000000000000000000000000000000000000000000815260206004820152601f60248201527f43616d706169676e3a2073656e646572206973206e6f7420666163746f72790060448201526064016103d1565b805160008054602084015160408501517fffffffffffffffffffffffffffffff00000000000000000000000000000000ff90921661010067ffffffffffffffff958616027fffffffffffffffffffffffffffffff0000000000000000ffffffffffffffffff1617690100000000000000000091851691909102177fffffffffffffff0000000000000000ffffffffffffffffffffffffffffffffff167101000000000000000000000000000000000093909116929092029190911790556060810151600180547fffffffffffffffffffffffff000000000000000000000000000000000000000090811673ffffffffffffffffffffffffffffffffffffffff9384161790915560a0830151600280549092169216919091179055608081015160035560c08101516007906105ad9082611895565b5060e08101515160065560005b600654811015610647578160e0015181815181106105da576105da6119af565b6020908102919091018101516000838152600883526040902081518155910151600190910180547fffffffffffffffffffffffffffffffffffffffffffffffff00000000000000001667ffffffffffffffff9092169190911790558061063f81611a0d565b9150506105ba565b5050600080547fffffffffffffffffffffffffffffffffffffffffffffffffffffffffffffff00166001179055565b60015473ffffffffffffffffffffffffffffffffffffffff1633146106c9576040517f4c4f0e4e0000000000000000000000000000000000000000000000000000000081523360048201526024016103d1565b80600003610706576040517fbea1e509000000000000000000000000000000000000000000000000000000008152600481018290526024016103d1565b60007f000000000000000000000000000000000000000000000000000000000000000073ffffffffffffffffffffffffffffffffffffffff1663dc139bd86040518163ffffffff1660e01b8152600401602060405180830381865afa158015610773573d6000803e3d6000fd5b505050506040513d601f19601f820116820180604052508101906107979190611a45565b6040517fb9209e3300000000000000000000000000000000000000000000000000000000815230600482015290915073ffffffffffffffffffffffffffffffffffffffff82169063b9209e3390602401602060405180830381865afa158015610804573d6000803e3d6000fd5b505050506040513d601f19601f820116820180604052508101906108289190611a62565b61085e576040517fc8ca551400000000000000000000000000000000000000000000000000000000815260040160405180910390fd5b60006108686109da565b905080158061087657508083115b156108b7576040517febf6c43700000000000000000000000000000000000000000000000000000000815260048101849052602481018290526044016103d1565b82600560008282546108c99190611a84565b90915550506001546002546108f89173ffffffffffffffffffffffffffffffffffffffff918216911685610d6a565b60025460405184815273ffffffffffffffffffffffffffffffffffffffff909116907f884edad9ce6fa2440d8a54cc123490eb96d2768479d49ff9c7366125a94243649060200160405180910390a2505050565b60078054610959906117f4565b80601f0160208091040260200160405190810160405280929190818152602001828054610985906117f4565b80156109d25780601f106109a7576101008083540402835291602001916109d2565b820191906000526020600020905b8154815290600101906020018083116109b557829003601f168201915b505050505081565b600080544290610a189067ffffffffffffffff7101000000000000000000000000000000000082048116916901000000000000000000900416611a9d565b67ffffffffffffffff16811015610a3157600091505090565b6000805b600654811015610a99576000818152600860209081526040918290208251808401909352805483526001015467ffffffffffffffff169082018190528410610a86578051610a839084611a84565b92505b5080610a9181611a0d565b915050610a35565b506000610aa7600454610e43565b90506000610ab6600454610f13565b90506000610ae78284600454610acc9190611ac5565b610ad69190611ac5565b610ae286612710611ac5565b610f81565b50905060055481610af89190611ac5565b9550505050505090565b610b0b81611005565b6000610b1682610e43565b90506000610b2383610f13565b9050600081610b328486611ac5565b610b3c9190611ac5565b905060007f000000000000000000000000000000000000000000000000000000000000000073ffffffffffffffffffffffffffffffffffffffff1663803db96d6040518163ffffffff1660e01b8152600401602060405180830381865afa158015610bab573d6000803e3d6000fd5b505050506040513d601f19601f82011682018060405250810190610bcf9190611a45565b905060007f000000000000000000000000000000000000000000000000000000000000000073ffffffffffffffffffffffffffffffffffffffff166366666aa96040518163ffffffff1660e01b8152600401602060405180830381865afa158015610c3e573d6000803e3d6000fd5b505050506040513d601f19601f82011682018060405250810190610c629190611a45565b600254909150610c8a9073ffffffffffffffffffffffffffffffffffffffff16338488611113565b600254610caf9073ffffffffffffffffffffffffffffffffffffffff16338387611113565b600254610cd49073ffffffffffffffffffffffffffffffffffffffff16333086611113565b3360009081526009602052604081208054889290610cf3908490611a84565b925050819055508560046000828254610d0c9190611a84565b909155505060025460405187815273ffffffffffffffffffffffffffffffffffffffff9091169033907f4dfff917e1fbb261a082e98cc7d43029621f6a6eb05ff3fef1510d5f1eb4857c9060200160405180910390a3505050505050565b60405173ffffffffffffffffffffffffffffffffffffffff8316602482015260448101829052610e3e9084907fa9059cbb00000000000000000000000000000000000000000000000000000000906064015b604080517fffffffffffffffffffffffffffffffffffffffffffffffffffffffffffffffe08184030181529190526020810180517bffffffffffffffffffffffffffffffffffffffffffffffffffffffff167fffffffff0000000000000000000000000000000000000000000000000000000090931692909217909152611177565b505050565b6000807f000000000000000000000000000000000000000000000000000000000000000073ffffffffffffffffffffffffffffffffffffffff1663b0e21e8a6040518163ffffffff1660e01b8152600401602060405180830381865afa158015610eb1573d6000803e3d6000fd5b505050506040513d601f19601f82011682018060405250810190610ed59190611ad8565b90506000610ee38483611af1565b610ef590670de0b6b3a7640000611af1565b9050610f0b69021e19e0c9bab240000082611b08565b949350505050565b6000807f000000000000000000000000000000000000000000000000000000000000000073ffffffffffffffffffffffffffffffffffffffff1663c6854db86040518163ffffffff1660e01b8152600401602060405180830381865afa158015610eb1573d6000803e3d6000fd5b60008080610f8f8486611af1565b610fa190670de0b6b3a7640000611af1565b90506000610fb186612710611af1565b610fc390670de0b6b3a7640000611af1565b9050610fd969021e19e0c9bab240000083611b08565b925069021e19e0c9bab2400000610ff08383611ac5565b610ffa9190611b08565b935050509250929050565b80600003611042576040517fbea1e509000000000000000000000000000000000000000000000000000000008152600481018290526024016103d1565b600054610100900467ffffffffffffffff164210156110a1576000546040517f4b85688300000000000000000000000000000000000000000000000000000000815261010090910467ffffffffffffffff1660048201526024016103d1565b6000546901000000000000000000900467ffffffffffffffff16421115611110576000546040517f69d29ddb000000000000000000000000000000000000000000000000000000008152690100000000000000000090910467ffffffffffffffff1660048201526024016103d1565b50565b60405173ffffffffffffffffffffffffffffffffffffffff808516602483015283166044820152606481018290526111719085907f23b872dd0000000000000000000000000000000000000000000000000000000090608401610dbc565b50505050565b60006111d9826040518060400160405280602081526020017f5361666545524332303a206c6f772d6c6576656c2063616c6c206661696c65648152508573ffffffffffffffffffffffffffffffffffffffff166112869092919063ffffffff16565b90508051600014806111fa5750808060200190518101906111fa9190611a62565b610e3e576040517f08c379a000000000000000000000000000000000000000000000000000000000815260206004820152602a60248201527f5361666545524332303a204552433230206f7065726174696f6e20646964206e60448201527f6f7420737563636565640000000000000000000000000000000000000000000060648201526084016103d1565b6060610f0b8484600085856000808673ffffffffffffffffffffffffffffffffffffffff1685876040516112ba9190611b43565b60006040518083038185875af1925050503d80600081146112f7576040519150601f19603f3d011682016040523d82523d6000602084013e6112fc565b606091505b509150915061130d87838387611318565b979650505050505050565b606083156113ae5782516000036113a75773ffffffffffffffffffffffffffffffffffffffff85163b6113a7576040517f08c379a000000000000000000000000000000000000000000000000000000000815260206004820152601d60248201527f416464726573733a2063616c6c20746f206e6f6e2d636f6e747261637400000060448201526064016103d1565b5081610f0b565b610f0b83838151156113c35781518083602001fd5b806040517f08c379a00000000000000000000000000000000000000000000000000000000081526004016103d191906117e1565b73ffffffffffffffffffffffffffffffffffffffff8116811461111057600080fd5b8035611424816113f7565b919050565b60006020828403121561143b57600080fd5b8135611446816113f7565b9392505050565b7f4e487b7100000000000000000000000000000000000000000000000000000000600052604160045260246000fd5b6040805190810167ffffffffffffffff8111828210171561149f5761149f61144d565b60405290565b604051610100810167ffffffffffffffff8111828210171561149f5761149f61144d565b604051601f82017fffffffffffffffffffffffffffffffffffffffffffffffffffffffffffffffe016810167ffffffffffffffff811182821017156115105761151061144d565b604052919050565b803567ffffffffffffffff8116811461142457600080fd5b600082601f83011261154157600080fd5b813567ffffffffffffffff81111561155b5761155b61144d565b61158c60207fffffffffffffffffffffffffffffffffffffffffffffffffffffffffffffffe0601f840116016114c9565b8181528460208386010111156115a157600080fd5b816020850160208301376000918101602001919091529392505050565b600082601f8301126115cf57600080fd5b8135602067ffffffffffffffff8211156115eb576115eb61144d565b6115f9818360051b016114c9565b82815260069290921b8401810191818101908684111561161857600080fd5b8286015b8481101561165e57604081890312156116355760008081fd5b61163d61147c565b8135815261164c858301611518565b8186015283529183019160400161161c565b509695505050505050565b60006020828403121561167b57600080fd5b813567ffffffffffffffff8082111561169357600080fd5b9083019061010082860312156116a857600080fd5b6116b06114a5565b6116b983611518565b81526116c760208401611518565b60208201526116d860408401611518565b60408201526116e960608401611419565b60608201526080830135608082015261170460a08401611419565b60a082015260c08301358281111561171b57600080fd5b61172787828601611530565b60c08301525060e08301358281111561173f57600080fd5b61174b878286016115be565b60e08301525095945050505050565b60006020828403121561176c57600080fd5b5035919050565b60005b8381101561178e578181015183820152602001611776565b50506000910152565b600081518084526117af816020860160208601611773565b601f017fffffffffffffffffffffffffffffffffffffffffffffffffffffffffffffffe0169290920160200192915050565b6020815260006114466020830184611797565b600181811c9082168061180857607f821691505b602082108103611841577f4e487b7100000000000000000000000000000000000000000000000000000000600052602260045260246000fd5b50919050565b601f821115610e3e57600081815260208120601f850160051c8101602086101561186e5750805b601f850160051c820191505b8181101561188d5782815560010161187a565b505050505050565b815167ffffffffffffffff8111156118af576118af61144d565b6118c3816118bd84546117f4565b84611847565b602080601f83116001811461191657600084156118e05750858301515b7fffffffffffffffffffffffffffffffffffffffffffffffffffffffffffffffff600386901b1c1916600185901b17855561188d565b6000858152602081207fffffffffffffffffffffffffffffffffffffffffffffffffffffffffffffffe08616915b8281101561196357888601518255948401946001909101908401611944565b508582101561199f57878501517fffffffffffffffffffffffffffffffffffffffffffffffffffffffffffffffff600388901b60f8161c191681555b5050505050600190811b01905550565b7f4e487b7100000000000000000000000000000000000000000000000000000000600052603260045260246000fd5b7f4e487b7100000000000000000000000000000000000000000000000000000000600052601160045260246000fd5b60007fffffffffffffffffffffffffffffffffffffffffffffffffffffffffffffffff8203611a3e57611a3e6119de565b5060010190565b600060208284031215611a5757600080fd5b8151611446816113f7565b600060208284031215611a7457600080fd5b8151801515811461144657600080fd5b80820180821115611a9757611a976119de565b92915050565b67ffffffffffffffff818116838216019080821115611abe57611abe6119de565b5092915050565b81810381811115611a9757611a976119de565b600060208284031215611aea57600080fd5b5051919050565b8082028115828204841417611a9757611a976119de565b600082611b3e577f4e487b7100000000000000000000000000000000000000000000000000000000600052601260045260246000fd5b500490565b60008251611b55818460208701611773565b919091019291505056",
    "linkReferences": {}
  },
  "methodIdentifiers": {
    "asset()": "38d52e0f",
    "beneficiary()": "38af3eed",
    "claimed()": "e834a834",
    "cliffDuration()": "d85349f7",
    "donate(uint256)": "f14faf6f",
    "donatedAmount(address)": "022f6388",
    "endTime()": "3197cbb6",
    "factory()": "c45a0155",
    "initialize((uint64,uint64,uint64,address,uint256,address,bytes,(uint256,uint64)[]))": "16794c56",
    "metadata()": "392f37e9",
    "raisedAmount()": "c59ee1dc",
    "segmentByIndex(uint256)": "30e72cce",
    "segmentsCount()": "cb892c71",
    "startTime()": "78e97925",
    "targetAmount()": "953b8fb8",
    "withdraw(uint256)": "2e1a7d4d",
    "withdrawableAmount()": "951303f5"
  },
  "id": 45
}