{
  "abi": [
    {
      "inputs": [
        {
          "internalType": "address",
          "name": "owner_",
          "type": "address"
        },
        {
          "internalType": "address",
          "name": "acceptedToken_",
          "type": "address"
        },
        {
          "internalType": "address",
          "name": "protocolTreasury_",
          "type": "address"
        },
        {
          "internalType": "address",
          "name": "rewardPool_",
          "type": "address"
        },
        {
          "internalType": "address",
          "name": "campaignManagement_",
          "type": "address"
        }
      ],
      "stateMutability": "nonpayable",
      "type": "constructor"
    },
    {
      "inputs": [
        {
          "internalType": "address",
          "name": "token",
          "type": "address"
        }
      ],
      "name": "InvalidAsset",
      "type": "error"
    },
    {
      "inputs": [
        {
          "internalType": "address",
          "name": "beneficiary",
          "type": "address"
        }
      ],
      "name": "InvalidBeneficiary",
      "type": "error"
    },
    {
      "inputs": [
        {
          "internalType": "uint256",
          "name": "startTime",
          "type": "uint256"
        },
        {
          "internalType": "uint256",
          "name": "endTime",
          "type": "uint256"
        }
      ],
      "name": "InvalidCampaignTime",
      "type": "error"
    },
    {
      "inputs": [
        {
          "internalType": "uint256",
          "name": "duration",
          "type": "uint256"
        }
      ],
      "name": "InvalidCliffDuration",
      "type": "error"
    },
    {
      "inputs": [
        {
          "internalType": "uint256",
          "name": "milestone",
          "type": "uint256"
        }
      ],
      "name": "InvalidMilestone",
      "type": "error"
    },
    {
      "inputs": [
        {
          "internalType": "uint256",
          "name": "percentageBps",
          "type": "uint256"
        }
      ],
      "name": "InvalidPercentageBps",
      "type": "error"
    },
    {
      "inputs": [
        {
          "internalType": "uint256",
          "name": "amount",
          "type": "uint256"
        }
      ],
      "name": "InvalidTargetAmount",
      "type": "error"
    },
    {
      "inputs": [
        {
          "internalType": "uint256",
          "name": "length",
          "type": "uint256"
        }
      ],
      "name": "InvalidTokenSegmentsLength",
      "type": "error"
    },
    {
      "inputs": [],
      "name": "InvalidTotalPercentageSum",
      "type": "error"
    },
    {
      "anonymous": false,
      "inputs": [
        {
          "indexed": true,
          "internalType": "address",
          "name": "campaignAddr",
          "type": "address"
        },
        {
          "indexed": true,
          "internalType": "address",
          "name": "deployer",
          "type": "address"
        }
      ],
      "name": "CampaignCreated",
      "type": "event"
    },
    {
      "anonymous": false,
      "inputs": [
        {
          "indexed": true,
          "internalType": "address",
          "name": "previousOwner",
          "type": "address"
        },
        {
          "indexed": true,
          "internalType": "address",
          "name": "newOwner",
          "type": "address"
        }
      ],
      "name": "OwnershipTransferStarted",
      "type": "event"
    },
    {
      "anonymous": false,
      "inputs": [
        {
          "indexed": true,
          "internalType": "address",
          "name": "previousOwner",
          "type": "address"
        },
        {
          "indexed": true,
          "internalType": "address",
          "name": "newOwner",
          "type": "address"
        }
      ],
      "name": "OwnershipTransferred",
      "type": "event"
    },
    {
      "inputs": [],
      "name": "acceptOwnership",
      "outputs": [],
      "stateMutability": "nonpayable",
      "type": "function"
    },
    {
      "inputs": [],
      "name": "acceptedTokenAddresses",
      "outputs": [
        {
          "internalType": "address[]",
          "name": "",
          "type": "address[]"
        }
      ],
      "stateMutability": "view",
      "type": "function"
    },
    {
      "inputs": [
        {
          "internalType": "address",
          "name": "tokenAddr",
          "type": "address"
        }
      ],
      "name": "addAcceptedToken",
      "outputs": [],
      "stateMutability": "nonpayable",
      "type": "function"
    },
    {
      "inputs": [],
      "name": "campaignManagement",
      "outputs": [
        {
          "internalType": "address",
          "name": "",
          "type": "address"
        }
      ],
      "stateMutability": "view",
      "type": "function"
    },
    {
      "inputs": [
        {
          "components": [
            {
              "internalType": "uint64",
              "name": "startTime",
              "type": "uint64"
            },
            {
              "internalType": "uint64",
              "name": "endTime",
              "type": "uint64"
            },
            {
              "internalType": "uint64",
              "name": "cliffDuration",
              "type": "uint64"
            },
            {
              "internalType": "address",
              "name": "beneficiary",
              "type": "address"
            },
            {
              "internalType": "uint256",
              "name": "targetAmount",
              "type": "uint256"
            },
            {
              "internalType": "address",
              "name": "asset",
              "type": "address"
            },
            {
              "internalType": "bytes",
              "name": "metadata",
              "type": "bytes"
            },
            {
              "components": [
                {
                  "internalType": "uint256",
                  "name": "percentageBps",
                  "type": "uint256"
                },
                {
                  "internalType": "uint64",
                  "name": "milestone",
                  "type": "uint64"
                }
              ],
              "internalType": "struct CampaignLib.Segment[]",
              "name": "segments",
              "type": "tuple[]"
            }
          ],
          "internalType": "struct CampaignLib.CreateCampaignParams",
          "name": "params",
          "type": "tuple"
        }
      ],
      "name": "createCampaign",
      "outputs": [
        {
          "internalType": "address",
          "name": "campaignAddr",
          "type": "address"
        }
      ],
      "stateMutability": "nonpayable",
      "type": "function"
    },
    {
      "inputs": [
        {
          "internalType": "address",
          "name": "deployer",
          "type": "address"
        },
        {
          "internalType": "uint256",
          "name": "campaignIndex",
          "type": "uint256"
        }
      ],
      "name": "getCampaignAddress",
      "outputs": [
        {
          "internalType": "address",
          "name": "addr",
          "type": "address"
        }
      ],
      "stateMutability": "view",
      "type": "function"
    },
    {
      "inputs": [
        {
          "internalType": "address",
          "name": "user",
          "type": "address"
        },
        {
          "internalType": "uint256",
          "name": "index",
          "type": "uint256"
        }
      ],
      "name": "getUserCampaignByIndex",
      "outputs": [
        {
          "internalType": "address",
          "name": "campaignAddr",
          "type": "address"
        }
      ],
      "stateMutability": "view",
      "type": "function"
    },
    {
      "inputs": [
        {
          "internalType": "address",
          "name": "user",
          "type": "address"
        }
      ],
      "name": "getUserCampaignCount",
      "outputs": [
        {
          "internalType": "uint256",
          "name": "",
          "type": "uint256"
        }
      ],
      "stateMutability": "view",
      "type": "function"
    },
    {
      "inputs": [
        {
          "internalType": "address",
          "name": "tokenAddr",
          "type": "address"
        }
      ],
      "name": "isAcceptedToken",
      "outputs": [
        {
          "internalType": "bool",
          "name": "",
          "type": "bool"
        }
      ],
      "stateMutability": "view",
      "type": "function"
    },
    {
      "inputs": [],
      "name": "maxVestingSegments",
      "outputs": [
        {
          "internalType": "uint64",
          "name": "",
          "type": "uint64"
        }
      ],
      "stateMutability": "view",
      "type": "function"
    },
    {
      "inputs": [],
      "name": "minCampaignDuration",
      "outputs": [
        {
          "internalType": "uint64",
          "name": "",
          "type": "uint64"
        }
      ],
      "stateMutability": "view",
      "type": "function"
    },
    {
      "inputs": [],
      "name": "minCliffDuration",
      "outputs": [
        {
          "internalType": "uint64",
          "name": "",
          "type": "uint64"
        }
      ],
      "stateMutability": "view",
      "type": "function"
    },
    {
      "inputs": [],
      "name": "owner",
      "outputs": [
        {
          "internalType": "address",
          "name": "",
          "type": "address"
        }
      ],
      "stateMutability": "view",
      "type": "function"
    },
    {
      "inputs": [],
      "name": "pendingOwner",
      "outputs": [
        {
          "internalType": "address",
          "name": "",
          "type": "address"
        }
      ],
      "stateMutability": "view",
      "type": "function"
    },
    {
      "inputs": [],
      "name": "protocolFee",
      "outputs": [
        {
          "internalType": "uint256",
          "name": "",
          "type": "uint256"
        }
      ],
      "stateMutability": "view",
      "type": "function"
    },
    {
      "inputs": [],
      "name": "protocolTreasury",
      "outputs": [
        {
          "internalType": "address",
          "name": "",
          "type": "address"
        }
      ],
      "stateMutability": "view",
      "type": "function"
    },
    {
      "inputs": [],
      "name": "renounceOwnership",
      "outputs": [],
      "stateMutability": "nonpayable",
      "type": "function"
    },
    {
      "inputs": [],
      "name": "rewardPool",
      "outputs": [
        {
          "internalType": "address",
          "name": "",
          "type": "address"
        }
      ],
      "stateMutability": "view",
      "type": "function"
    },
    {
      "inputs": [],
      "name": "rewardPoolFee",
      "outputs": [
        {
          "internalType": "uint256",
          "name": "",
          "type": "uint256"
        }
      ],
      "stateMutability": "view",
      "type": "function"
    },
    {
      "inputs": [
        {
          "internalType": "uint64",
          "name": "_max",
          "type": "uint64"
        }
      ],
      "name": "setMaxVestingSegments",
      "outputs": [],
      "stateMutability": "nonpayable",
      "type": "function"
    },
    {
      "inputs": [
        {
          "internalType": "uint64",
          "name": "durationSecs",
          "type": "uint64"
        }
      ],
      "name": "setMinCampaignDuration",
      "outputs": [],
      "stateMutability": "nonpayable",
      "type": "function"
    },
    {
      "inputs": [
        {
          "internalType": "uint64",
          "name": "durationSecs",
          "type": "uint64"
        }
      ],
      "name": "setMinCliffDuration",
      "outputs": [],
      "stateMutability": "nonpayable",
      "type": "function"
    },
    {
      "inputs": [
        {
          "internalType": "address",
          "name": "newOwner",
          "type": "address"
        }
      ],
      "name": "transferOwnership",
      "outputs": [],
      "stateMutability": "nonpayable",
      "type": "function"
    }
  ],
  "bytecode": {
    "object": "0x6080604052600480546001600160c01b03191670140000000000000000000000000000003c17905560c86005556103206006553480156200003f57600080fd5b506040516200369a3803806200369a8339810160408190526200006291620001c9565b6200006d33620000cc565b6200007885620000cc565b62000085600285620000ea565b50600780546001600160a01b039485166001600160a01b03199182161790915560088054938516938216939093179092556009805491909316911617905550620002399050565b600180546001600160a01b0319169055620000e7816200010a565b50565b600062000101836001600160a01b0384166200015a565b90505b92915050565b600080546001600160a01b038381166001600160a01b0319831681178455604051919092169283917f8be0079c531659141344cd1fd0a4f28419497f9722a3daafe3b4186f6b6457e09190a35050565b6000818152600183016020526040812054620001a35750815460018181018455600084815260208082209093018490558454848252828601909352604090209190915562000104565b50600062000104565b80516001600160a01b0381168114620001c457600080fd5b919050565b600080600080600060a08688031215620001e257600080fd5b620001ed86620001ac565b9450620001fd60208701620001ac565b93506200020d60408701620001ac565b92506200021d60608701620001ac565b91506200022d60808701620001ac565b90509295509295909350565b61345180620002496000396000f3fe608060405234801561001057600080fd5b506004361061018d5760003560e01c80638fb700a7116100e3578063c6854db81161008c578063deaaf8da11610066578063deaaf8da1461039e578063e30c3978146103b1578063f2fde38b146103cf57600080fd5b8063c6854db814610362578063d3993a7f1461036b578063dc139bd81461037e57600080fd5b8063ba4f0d38116100bd578063ba4f0d3814610314578063bbd430b81461033c578063c221a6d31461034f57600080fd5b80638fb700a7146102d7578063b05722c0146102ea578063b0e21e8a146102fd57600080fd5b806366666aa911610145578063803db96d1161011f578063803db96d1461028557806382a52519146102a55780638da5cb5b146102b957600080fd5b806366666aa914610255578063715018a61461027557806379ba50971461027d57600080fd5b8063413a90ef11610176578063413a90ef146101cf578063555fdfe1146102085780636104eabe1461021d57600080fd5b80633b6e750f146101925780633eee83f1146101ba575b600080fd5b6101a56101a0366004611150565b6103e2565b60405190151581526020015b60405180910390f35b6101cd6101c8366004611150565b6103f5565b005b6004546101ef9068010000000000000000900467ffffffffffffffff1681565b60405167ffffffffffffffff90911681526020016101b1565b61021061040c565b6040516101b1919061116b565b61023061022b3660046111c5565b61041d565b60405173ffffffffffffffffffffffffffffffffffffffff90911681526020016101b1565b6008546102309073ffffffffffffffffffffffffffffffffffffffff1681565b6101cd6105cd565b6101cd6105e1565b6007546102309073ffffffffffffffffffffffffffffffffffffffff1681565b6004546101ef9067ffffffffffffffff1681565b60005473ffffffffffffffffffffffffffffffffffffffff16610230565b6101cd6102e5366004611219565b61069b565b6102306102f8366004611234565b6106f2565b61030660055481565b6040519081526020016101b1565b6004546101ef90700100000000000000000000000000000000900467ffffffffffffffff1681565b61023061034a366004611234565b61078a565b61030661035d366004611150565b6107c0565b61030660065481565b6101cd610379366004611219565b6107ee565b6009546102309073ffffffffffffffffffffffffffffffffffffffff1681565b6101cd6103ac366004611219565b61083d565b60015473ffffffffffffffffffffffffffffffffffffffff16610230565b6101cd6103dd366004611150565b610880565b60006103ef600283610930565b92915050565b6103fd61095f565b6104086002826109e0565b5050565b60606104186002610a02565b905090565b600061043061042b83611462565b610a0f565b600061043b336107c0565b905060006040518060200161044f9061111a565b7fffffffffffffffffffffffffffffffffffffffffffffffffffffffffffffffe082820381018352601f9091011660408190527fffffffffffffffffffffffffffffffffffffffff0000000000000000000000003360601b166020820152603481018490529091506000906054016040516020818303038152906040528051906020012090506104e160008284610df3565b336000908152600a602052604090209094506104fd90856109e0565b506040517f16794c5600000000000000000000000000000000000000000000000000000000815273ffffffffffffffffffffffffffffffffffffffff8516906316794c569061055090889060040161169d565b600060405180830381600087803b15801561056a57600080fd5b505af115801561057e573d6000803e3d6000fd5b505060405133925073ffffffffffffffffffffffffffffffffffffffff871691507f6056366dba45431fd6a8854ad9f2594942b02c4f2c3f6fbc329b3079b027b8b490600090a3505050919050565b6105d561095f565b6105df6000610f52565b565b600154339073ffffffffffffffffffffffffffffffffffffffff16811461068f576040517f08c379a000000000000000000000000000000000000000000000000000000000815260206004820152602960248201527f4f776e61626c6532537465703a2063616c6c6572206973206e6f74207468652060448201527f6e6577206f776e6572000000000000000000000000000000000000000000000060648201526084015b60405180910390fd5b61069881610f52565b50565b6106a361095f565b6004805467ffffffffffffffff909216700100000000000000000000000000000000027fffffffffffffffff0000000000000000ffffffffffffffffffffffffffffffff909216919091179055565b6040517fffffffffffffffffffffffffffffffffffffffff000000000000000000000000606084901b16602082015260348101829052600090819060540160405160208183030381529060405280519060200120905060006040518060200161075a9061111a565b6020820181038252601f19601f820116604052508051906020012090506107818282610f83565b95945050505050565b73ffffffffffffffffffffffffffffffffffffffff82166000908152600a602052604081206107b99083610f90565b9392505050565b73ffffffffffffffffffffffffffffffffffffffff81166000908152600a602052604081206103ef90610f9c565b6107f661095f565b6004805467ffffffffffffffff90921668010000000000000000027fffffffffffffffffffffffffffffffff0000000000000000ffffffffffffffff909216919091179055565b61084561095f565b600480547fffffffffffffffffffffffffffffffffffffffffffffffff00000000000000001667ffffffffffffffff92909216919091179055565b61088861095f565b6001805473ffffffffffffffffffffffffffffffffffffffff83167fffffffffffffffffffffffff000000000000000000000000000000000000000090911681179091556108eb60005473ffffffffffffffffffffffffffffffffffffffff1690565b73ffffffffffffffffffffffffffffffffffffffff167f38d16b8cac22d99fc7c124b9cd0de2d3fa1faef420bfe791d8c362d765e2270060405160405180910390a350565b73ffffffffffffffffffffffffffffffffffffffff8116600090815260018301602052604081205415156107b9565b60005473ffffffffffffffffffffffffffffffffffffffff1633146105df576040517f08c379a000000000000000000000000000000000000000000000000000000000815260206004820181905260248201527f4f776e61626c653a2063616c6c6572206973206e6f7420746865206f776e65726044820152606401610686565b60006107b98373ffffffffffffffffffffffffffffffffffffffff8416610fa6565b606060006107b983610ff5565b42816000015167ffffffffffffffff16111580610a5457506004548151602083015167ffffffffffffffff90921691610a4891906117f5565b67ffffffffffffffff16105b15610aa557805160208201516040517ecc7a5400000000000000000000000000000000000000000000000000000000815267ffffffffffffffff928316600482015291166024820152604401610686565b606081015173ffffffffffffffffffffffffffffffffffffffff16610b145760608101516040517f1a3b45fd00000000000000000000000000000000000000000000000000000000815273ffffffffffffffffffffffffffffffffffffffff9091166004820152602401610686565b600454604082015167ffffffffffffffff68010000000000000000909204821691161015610b805760408082015190517f34adf9d200000000000000000000000000000000000000000000000000000000815267ffffffffffffffff9091166004820152602401610686565b610b8d8160a001516103e2565b610be15760a08101516040517f6f79c78a00000000000000000000000000000000000000000000000000000000815273ffffffffffffffffffffffffffffffffffffffff9091166004820152602401610686565b8060800151600003610c275780608001516040517fbdfb797800000000000000000000000000000000000000000000000000000000815260040161068691815260200190565b60e0810151511580610c5e575060045460e08201515170010000000000000000000000000000000090910467ffffffffffffffff16105b15610c9e578060e00151516040517f058f42bb00000000000000000000000000000000000000000000000000000000815260040161068691815260200190565b426000805b8360e0015151811015610db25760008460e001518281518110610cc857610cc861181d565b60200260200101519050806000015160001480610ce757508051612710105b15610d245780516040517fad5ddc8f0000000000000000000000000000000000000000000000000000000081526004810191909152602401610686565b83816020015167ffffffffffffffff1611610d7d5760208101516040517f9001e33200000000000000000000000000000000000000000000000000000000815267ffffffffffffffff9091166004820152602401610686565b6020810151815167ffffffffffffffff9091169450610d9c908461184c565b9250508080610daa9061185f565b915050610ca3565b508061271014610dee576040517ff665833a00000000000000000000000000000000000000000000000000000000815260040160405180910390fd5b505050565b600083471015610e5f576040517f08c379a000000000000000000000000000000000000000000000000000000000815260206004820152601d60248201527f437265617465323a20696e73756666696369656e742062616c616e63650000006044820152606401610686565b8151600003610eca576040517f08c379a000000000000000000000000000000000000000000000000000000000815260206004820181905260248201527f437265617465323a2062797465636f6465206c656e677468206973207a65726f6044820152606401610686565b8282516020840186f5905073ffffffffffffffffffffffffffffffffffffffff81166107b9576040517f08c379a000000000000000000000000000000000000000000000000000000000815260206004820152601960248201527f437265617465323a204661696c6564206f6e206465706c6f79000000000000006044820152606401610686565b600180547fffffffffffffffffffffffff000000000000000000000000000000000000000016905561069881611051565b60006107b98383306110c6565b60006107b983836110f0565b60006103ef825490565b6000818152600183016020526040812054610fed575081546001818101845560008481526020808220909301849055845484825282860190935260409020919091556103ef565b5060006103ef565b60608160000180548060200260200160405190810160405280929190818152602001828054801561104557602002820191906000526020600020905b815481526020019060010190808311611031575b50505050509050919050565b6000805473ffffffffffffffffffffffffffffffffffffffff8381167fffffffffffffffffffffffff0000000000000000000000000000000000000000831681178455604051919092169283917f8be0079c531659141344cd1fd0a4f28419497f9722a3daafe3b4186f6b6457e09190a35050565b6000604051836040820152846020820152828152600b8101905060ff815360559020949350505050565b60008260000182815481106111075761110761181d565b9060005260206000200154905092915050565b611bb98061189883390190565b803573ffffffffffffffffffffffffffffffffffffffff8116811461114b57600080fd5b919050565b60006020828403121561116257600080fd5b6107b982611127565b6020808252825182820181905260009190848201906040850190845b818110156111b957835173ffffffffffffffffffffffffffffffffffffffff1683529284019291840191600101611187565b50909695505050505050565b6000602082840312156111d757600080fd5b813567ffffffffffffffff8111156111ee57600080fd5b820161010081850312156107b957600080fd5b803567ffffffffffffffff8116811461114b57600080fd5b60006020828403121561122b57600080fd5b6107b982611201565b6000806040838503121561124757600080fd5b61125083611127565b946020939093013593505050565b7f4e487b7100000000000000000000000000000000000000000000000000000000600052604160045260246000fd5b6040805190810167ffffffffffffffff811182821017156112b0576112b061125e565b60405290565b604051610100810167ffffffffffffffff811182821017156112b0576112b061125e565b604051601f82017fffffffffffffffffffffffffffffffffffffffffffffffffffffffffffffffe016810167ffffffffffffffff811182821017156113215761132161125e565b604052919050565b600082601f83011261133a57600080fd5b813567ffffffffffffffff8111156113545761135461125e565b61138560207fffffffffffffffffffffffffffffffffffffffffffffffffffffffffffffffe0601f840116016112da565b81815284602083860101111561139a57600080fd5b816020850160208301376000918101602001919091529392505050565b600082601f8301126113c857600080fd5b8135602067ffffffffffffffff8211156113e4576113e461125e565b6113f2818360051b016112da565b82815260069290921b8401810191818101908684111561141157600080fd5b8286015b84811015611457576040818903121561142e5760008081fd5b61143661128d565b81358152611445858301611201565b81860152835291830191604001611415565b509695505050505050565b6000610100823603121561147557600080fd5b61147d6112b6565b61148683611201565b815261149460208401611201565b60208201526114a560408401611201565b60408201526114b660608401611127565b6060820152608083013560808201526114d160a08401611127565b60a082015260c083013567ffffffffffffffff808211156114f157600080fd5b6114fd36838701611329565b60c084015260e085013591508082111561151657600080fd5b50611523368286016113b7565b60e08301525092915050565b60008083357fffffffffffffffffffffffffffffffffffffffffffffffffffffffffffffffe184360301811261156457600080fd5b830160208101925035905067ffffffffffffffff81111561158457600080fd5b80360382131561159357600080fd5b9250929050565b8183528181602085013750600060208284010152600060207fffffffffffffffffffffffffffffffffffffffffffffffffffffffffffffffe0601f840116840101905092915050565b60008083357fffffffffffffffffffffffffffffffffffffffffffffffffffffffffffffffe184360301811261161857600080fd5b830160208101925035905067ffffffffffffffff81111561163857600080fd5b8060061b360382131561159357600080fd5b8183526000602080850194508260005b85811015611692578135875267ffffffffffffffff61167a848401611201565b1687840152604096870196919091019060010161165a565b509495945050505050565b6020815267ffffffffffffffff6116b383611201565b16602082015260006116c760208401611201565b67ffffffffffffffff81166040840152506116e460408401611201565b67ffffffffffffffff811660608401525061170160608401611127565b73ffffffffffffffffffffffffffffffffffffffff8116608084015250608083013560a083015261173460a08401611127565b73ffffffffffffffffffffffffffffffffffffffff811660c08401525061175e60c084018461152f565b6101008060e08601526117766101208601838561159a565b925061178560e08701876115e3565b92507fffffffffffffffffffffffffffffffffffffffffffffffffffffffffffffffe086850301828701526117bb84848361164a565b979650505050505050565b7f4e487b7100000000000000000000000000000000000000000000000000000000600052601160045260246000fd5b67ffffffffffffffff828116828216039080821115611816576118166117c6565b5092915050565b7f4e487b7100000000000000000000000000000000000000000000000000000000600052603260045260246000fd5b808201808211156103ef576103ef6117c6565b60007fffffffffffffffffffffffffffffffffffffffffffffffffffffffffffffffff8203611890576118906117c6565b506001019056fe60a060405234801561001057600080fd5b5033608052608051611b5f61005a600039600081816102ef015281816103f20152818161070a01528181610b4201528181610bd501528181610e480152610f180152611b5f6000f3fe608060405234801561001057600080fd5b506004361061011b5760003560e01c806378e97925116100b2578063c59ee1dc11610081578063d85349f711610066578063d85349f714610323578063e834a8341461034c578063f14faf6f1461035557600080fd5b8063c59ee1dc14610311578063cb892c711461031a57600080fd5b806378e97925146102c0578063951303f5146102d9578063953b8fb8146102e1578063c45a0155146102ea57600080fd5b80633197cbb6116100ee5780633197cbb61461020c57806338af3eed1461024657806338d52e0f1461028b578063392f37e9146102ab57600080fd5b8063022f63881461012057806316794c56146101695780632e1a7d4d1461017e57806330e72cce14610191575b600080fd5b61015661012e366004611429565b73ffffffffffffffffffffffffffffffffffffffff1660009081526009602052604090205490565b6040519081526020015b60405180910390f35b61017c610177366004611669565b610368565b005b61017c61018c36600461175a565b610676565b6101e761019f36600461175a565b6040805180820190915260008082526020820152506000908152600860209081526040918290208251808401909352805483526001015467ffffffffffffffff169082015290565b604080518251815260209283015167ffffffffffffffff169281019290925201610160565b60005461022d906901000000000000000000900467ffffffffffffffff1681565b60405167ffffffffffffffff9091168152602001610160565b6001546102669073ffffffffffffffffffffffffffffffffffffffff1681565b60405173ffffffffffffffffffffffffffffffffffffffff9091168152602001610160565b6002546102669073ffffffffffffffffffffffffffffffffffffffff1681565b6102b361094c565b60405161016091906117e1565b60005461022d90610100900467ffffffffffffffff1681565b6101566109da565b61015660035481565b6102667f000000000000000000000000000000000000000000000000000000000000000081565b61015660045481565b61015660065481565b60005461022d9071010000000000000000000000000000000000900467ffffffffffffffff1681565b61015660055481565b61017c61036336600461175a565b610b02565b60005460ff16156103da576040517f08c379a000000000000000000000000000000000000000000000000000000000815260206004820152600e60248201527f497320696e697469616c697a656400000000000000000000000000000000000060448201526064015b60405180910390fd5b3373ffffffffffffffffffffffffffffffffffffffff7f00000000000000000000000000000000000000000000000000000000000000001614610479576040517f08c379a000000000000000000000000000000000000000000000000000000000815260206004820152601f60248201527f43616d706169676e3a2073656e646572206973206e6f7420666163746f72790060448201526064016103d1565b805160008054602084015160408501517fffffffffffffffffffffffffffffff00000000000000000000000000000000ff90921661010067ffffffffffffffff958616027fffffffffffffffffffffffffffffff0000000000000000ffffffffffffffffff1617690100000000000000000091851691909102177fffffffffffffff0000000000000000ffffffffffffffffffffffffffffffffff167101000000000000000000000000000000000093909116929092029190911790556060810151600180547fffffffffffffffffffffffff000000000000000000000000000000000000000090811673ffffffffffffffffffffffffffffffffffffffff9384161790915560a0830151600280549092169216919091179055608081015160035560c08101516007906105ad9082611895565b5060e08101515160065560005b600654811015610647578160e0015181815181106105da576105da6119af565b6020908102919091018101516000838152600883526040902081518155910151600190910180547fffffffffffffffffffffffffffffffffffffffffffffffff00000000000000001667ffffffffffffffff9092169190911790558061063f81611a0d565b9150506105ba565b5050600080547fffffffffffffffffffffffffffffffffffffffffffffffffffffffffffffff00166001179055565b60015473ffffffffffffffffffffffffffffffffffffffff1633146106c9576040517f4c4f0e4e0000000000000000000000000000000000000000000000000000000081523360048201526024016103d1565b80600003610706576040517fbea1e509000000000000000000000000000000000000000000000000000000008152600481018290526024016103d1565b60007f000000000000000000000000000000000000000000000000000000000000000073ffffffffffffffffffffffffffffffffffffffff1663dc139bd86040518163ffffffff1660e01b8152600401602060405180830381865afa158015610773573d6000803e3d6000fd5b505050506040513d601f19601f820116820180604052508101906107979190611a45565b6040517fb9209e3300000000000000000000000000000000000000000000000000000000815230600482015290915073ffffffffffffffffffffffffffffffffffffffff82169063b9209e3390602401602060405180830381865afa158015610804573d6000803e3d6000fd5b505050506040513d601f19601f820116820180604052508101906108289190611a62565b61085e576040517fc8ca551400000000000000000000000000000000000000000000000000000000815260040160405180910390fd5b60006108686109da565b905080158061087657508083115b156108b7576040517febf6c43700000000000000000000000000000000000000000000000000000000815260048101849052602481018290526044016103d1565b82600560008282546108c99190611a84565b90915550506001546002546108f89173ffffffffffffffffffffffffffffffffffffffff918216911685610d6a565b60025460405184815273ffffffffffffffffffffffffffffffffffffffff909116907f884edad9ce6fa2440d8a54cc123490eb96d2768479d49ff9c7366125a94243649060200160405180910390a2505050565b60078054610959906117f4565b80601f0160208091040260200160405190810160405280929190818152602001828054610985906117f4565b80156109d25780601f106109a7576101008083540402835291602001916109d2565b820191906000526020600020905b8154815290600101906020018083116109b557829003601f168201915b505050505081565b600080544290610a189067ffffffffffffffff7101000000000000000000000000000000000082048116916901000000000000000000900416611a9d565b67ffffffffffffffff16811015610a3157600091505090565b6000805b600654811015610a99576000818152600860209081526040918290208251808401909352805483526001015467ffffffffffffffff169082018190528410610a86578051610a839084611a84565b92505b5080610a9181611a0d565b915050610a35565b506000610aa7600454610e43565b90506000610ab6600454610f13565b90506000610ae78284600454610acc9190611ac5565b610ad69190611ac5565b610ae286612710611ac5565b610f81565b50905060055481610af89190611ac5565b9550505050505090565b610b0b81611005565b6000610b1682610e43565b90506000610b2383610f13565b9050600081610b328486611ac5565b610b3c9190611ac5565b905060007f000000000000000000000000000000000000000000000000000000000000000073ffffffffffffffffffffffffffffffffffffffff1663803db96d6040518163ffffffff1660e01b8152600401602060405180830381865afa158015610bab573d6000803e3d6000fd5b505050506040513d601f19601f82011682018060405250810190610bcf9190611a45565b905060007f000000000000000000000000000000000000000000000000000000000000000073ffffffffffffffffffffffffffffffffffffffff166366666aa96040518163ffffffff1660e01b8152600401602060405180830381865afa158015610c3e573d6000803e3d6000fd5b505050506040513d601f19601f82011682018060405250810190610c629190611a45565b600254909150610c8a9073ffffffffffffffffffffffffffffffffffffffff16338488611113565b600254610caf9073ffffffffffffffffffffffffffffffffffffffff16338387611113565b600254610cd49073ffffffffffffffffffffffffffffffffffffffff16333086611113565b3360009081526009602052604081208054889290610cf3908490611a84565b925050819055508560046000828254610d0c9190611a84565b909155505060025460405187815273ffffffffffffffffffffffffffffffffffffffff9091169033907f4dfff917e1fbb261a082e98cc7d43029621f6a6eb05ff3fef1510d5f1eb4857c9060200160405180910390a3505050505050565b60405173ffffffffffffffffffffffffffffffffffffffff8316602482015260448101829052610e3e9084907fa9059cbb00000000000000000000000000000000000000000000000000000000906064015b604080517fffffffffffffffffffffffffffffffffffffffffffffffffffffffffffffffe08184030181529190526020810180517bffffffffffffffffffffffffffffffffffffffffffffffffffffffff167fffffffff0000000000000000000000000000000000000000000000000000000090931692909217909152611177565b505050565b6000807f000000000000000000000000000000000000000000000000000000000000000073ffffffffffffffffffffffffffffffffffffffff1663b0e21e8a6040518163ffffffff1660e01b8152600401602060405180830381865afa158015610eb1573d6000803e3d6000fd5b505050506040513d601f19601f82011682018060405250810190610ed59190611ad8565b90506000610ee38483611af1565b610ef590670de0b6b3a7640000611af1565b9050610f0b69021e19e0c9bab240000082611b08565b949350505050565b6000807f000000000000000000000000000000000000000000000000000000000000000073ffffffffffffffffffffffffffffffffffffffff1663c6854db86040518163ffffffff1660e01b8152600401602060405180830381865afa158015610eb1573d6000803e3d6000fd5b60008080610f8f8486611af1565b610fa190670de0b6b3a7640000611af1565b90506000610fb186612710611af1565b610fc390670de0b6b3a7640000611af1565b9050610fd969021e19e0c9bab240000083611b08565b925069021e19e0c9bab2400000610ff08383611ac5565b610ffa9190611b08565b935050509250929050565b80600003611042576040517fbea1e509000000000000000000000000000000000000000000000000000000008152600481018290526024016103d1565b600054610100900467ffffffffffffffff164210156110a1576000546040517f4b85688300000000000000000000000000000000000000000000000000000000815261010090910467ffffffffffffffff1660048201526024016103d1565b6000546901000000000000000000900467ffffffffffffffff16421115611110576000546040517f69d29ddb000000000000000000000000000000000000000000000000000000008152690100000000000000000090910467ffffffffffffffff1660048201526024016103d1565b50565b60405173ffffffffffffffffffffffffffffffffffffffff808516602483015283166044820152606481018290526111719085907f23b872dd0000000000000000000000000000000000000000000000000000000090608401610dbc565b50505050565b60006111d9826040518060400160405280602081526020017f5361666545524332303a206c6f772d6c6576656c2063616c6c206661696c65648152508573ffffffffffffffffffffffffffffffffffffffff166112869092919063ffffffff16565b90508051600014806111fa5750808060200190518101906111fa9190611a62565b610e3e576040517f08c379a000000000000000000000000000000000000000000000000000000000815260206004820152602a60248201527f5361666545524332303a204552433230206f7065726174696f6e20646964206e60448201527f6f7420737563636565640000000000000000000000000000000000000000000060648201526084016103d1565b6060610f0b8484600085856000808673ffffffffffffffffffffffffffffffffffffffff1685876040516112ba9190611b43565b60006040518083038185875af1925050503d80600081146112f7576040519150601f19603f3d011682016040523d82523d6000602084013e6112fc565b606091505b509150915061130d87838387611318565b979650505050505050565b606083156113ae5782516000036113a75773ffffffffffffffffffffffffffffffffffffffff85163b6113a7576040517f08c379a000000000000000000000000000000000000000000000000000000000815260206004820152601d60248201527f416464726573733a2063616c6c20746f206e6f6e2d636f6e747261637400000060448201526064016103d1565b5081610f0b565b610f0b83838151156113c35781518083602001fd5b806040517f08c379a00000000000000000000000000000000000000000000000000000000081526004016103d191906117e1565b73ffffffffffffffffffffffffffffffffffffffff8116811461111057600080fd5b8035611424816113f7565b919050565b60006020828403121561143b57600080fd5b8135611446816113f7565b9392505050565b7f4e487b7100000000000000000000000000000000000000000000000000000000600052604160045260246000fd5b6040805190810167ffffffffffffffff8111828210171561149f5761149f61144d565b60405290565b604051610100810167ffffffffffffffff8111828210171561149f5761149f61144d565b604051601f82017fffffffffffffffffffffffffffffffffffffffffffffffffffffffffffffffe016810167ffffffffffffffff811182821017156115105761151061144d565b604052919050565b803567ffffffffffffffff8116811461142457600080fd5b600082601f83011261154157600080fd5b813567ffffffffffffffff81111561155b5761155b61144d565b61158c60207fffffffffffffffffffffffffffffffffffffffffffffffffffffffffffffffe0601f840116016114c9565b8181528460208386010111156115a157600080fd5b816020850160208301376000918101602001919091529392505050565b600082601f8301126115cf57600080fd5b8135602067ffffffffffffffff8211156115eb576115eb61144d565b6115f9818360051b016114c9565b82815260069290921b8401810191818101908684111561161857600080fd5b8286015b8481101561165e57604081890312156116355760008081fd5b61163d61147c565b8135815261164c858301611518565b8186015283529183019160400161161c565b509695505050505050565b60006020828403121561167b57600080fd5b813567ffffffffffffffff8082111561169357600080fd5b9083019061010082860312156116a857600080fd5b6116b06114a5565b6116b983611518565b81526116c760208401611518565b60208201526116d860408401611518565b60408201526116e960608401611419565b60608201526080830135608082015261170460a08401611419565b60a082015260c08301358281111561171b57600080fd5b61172787828601611530565b60c08301525060e08301358281111561173f57600080fd5b61174b878286016115be565b60e08301525095945050505050565b60006020828403121561176c57600080fd5b5035919050565b60005b8381101561178e578181015183820152602001611776565b50506000910152565b600081518084526117af816020860160208601611773565b601f017fffffffffffffffffffffffffffffffffffffffffffffffffffffffffffffffe0169290920160200192915050565b6020815260006114466020830184611797565b600181811c9082168061180857607f821691505b602082108103611841577f4e487b7100000000000000000000000000000000000000000000000000000000600052602260045260246000fd5b50919050565b601f821115610e3e57600081815260208120601f850160051c8101602086101561186e5750805b601f850160051c820191505b8181101561188d5782815560010161187a565b505050505050565b815167ffffffffffffffff8111156118af576118af61144d565b6118c3816118bd84546117f4565b84611847565b602080601f83116001811461191657600084156118e05750858301515b7fffffffffffffffffffffffffffffffffffffffffffffffffffffffffffffffff600386901b1c1916600185901b17855561188d565b6000858152602081207fffffffffffffffffffffffffffffffffffffffffffffffffffffffffffffffe08616915b8281101561196357888601518255948401946001909101908401611944565b508582101561199f57878501517fffffffffffffffffffffffffffffffffffffffffffffffffffffffffffffffff600388901b60f8161c191681555b5050505050600190811b01905550565b7f4e487b7100000000000000000000000000000000000000000000000000000000600052603260045260246000fd5b7f4e487b7100000000000000000000000000000000000000000000000000000000600052601160045260246000fd5b60007fffffffffffffffffffffffffffffffffffffffffffffffffffffffffffffffff8203611a3e57611a3e6119de565b5060010190565b600060208284031215611a5757600080fd5b8151611446816113f7565b600060208284031215611a7457600080fd5b8151801515811461144657600080fd5b80820180821115611a9757611a976119de565b92915050565b67ffffffffffffffff818116838216019080821115611abe57611abe6119de565b5092915050565b81810381811115611a9757611a976119de565b600060208284031215611aea57600080fd5b5051919050565b8082028115828204841417611a9757611a976119de565b600082611b3e577f4e487b7100000000000000000000000000000000000000000000000000000000600052601260045260246000fd5b500490565b60008251611b55818460208701611773565b919091019291505056",
    "linkReferences": {}
  },
  "methodIdentifiers": {
    "acceptOwnership()": "79ba5097",
    "acceptedTokenAddresses()": "555fdfe1",
    "addAcceptedToken(address)": "3eee83f1",
    "campaignManagement()": "dc139bd8",
    "createCampaign((uint64,uint64,uint64,address,uint256,address,bytes,(uint256,uint64)[]))": "6104eabe",
    "getCampaignAddress(address,uint256)": "b05722c0",
    "getUserCampaignByIndex(address,uint256)": "bbd430b8",
    "getUserCampaignCount(address)": "c221a6d3",
    "isAcceptedToken(address)": "3b6e750f",
    "maxVestingSegments()": "ba4f0d38",
    "minCampaignDuration()": "82a52519",
    "minCliffDuration()": "413a90ef",
    "owner()": "8da5cb5b",
    "pendingOwner()": "e30c3978",
    "protocolFee()": "b0e21e8a",
    "protocolTreasury()": "803db96d",
    "renounceOwnership()": "715018a6",
    "rewardPool()": "66666aa9",
    "rewardPoolFee()": "c6854db8",
    "setMaxVestingSegments(uint64)": "8fb700a7",
    "setMinCampaignDuration(uint64)": "deaaf8da",
    "setMinCliffDuration(uint64)": "d3993a7f",
    "transferOwnership(address)": "f2fde38b"
  },
  "id": 46
}